:020000040800F2
:10000000000001205D030008650300086D0300087F
:10001000750300087D030008850300080000000048
:100020000000000000000000000000008D03000838
:1000300095030008000000009D0300087D140008DF
:10004000AD030008AD030008AD030008AD030008D0
:10005000AD030008AD030008AD030008AD030008C0
:10006000AD030008AD030008AD030008AD030008B0
:10007000AD030008AD030008AD030008AD030008A0
:10008000AD030008AD030008AD030008AD03000890
:10009000AD030008AD030008AD030008AD03000880
:1000A000AD030008AD030008AD030008AD03000870
:1000B000AD030008AD030008AD030008AD03000860
:1000C000AD030008AD030008AD030008AD03000850
:1000D000AD030008FD380008AD030008AD030008BB
:1000E000AD030008AD030008AD030008AD03000830
:1000F000AD030008AD030008AD030008AD03000820
:10010000AD030008AD030008AD030008AD0300080F
:10011000AD030008AD030008AD030008AD030008FF
:10012000AD030008AD030008AD030008AD030008EF
:1001300000000000000000000000000000000000BF
:1001400000000000000000000000000000000000AF
:10015000000000000000000000000000000000009F
:10016000000000000000000000000000000000008F
:10017000000000000000000000000000000000007F
:10018000000000000000000000000000000000006F
:10019000000000000000000000000000000000005F
:1001A000000000000000000000000000000000004F
:1001B000000000000000000000000000000000003F
:1001C000000000000000000000000000000000002F
:1001D000000000000000000000000000000000001F
:1001E0005FF8E0F180B58EB000AF00F07FFB4A4BC6
:1001F0004A4A1A604A4B494A1A604A4B3B634A4B87
:10020000FB623B6BBB6204E0BB6A1A1DBA62002250
:100210001A60FA6ABB6A9A42F6D83F4B1B68002BF9
:1002200003D13F4B1B68002B00D0FEE73F4B3B4AFE
:100230001A603F4B394A1A603E4B7B623E4B3B6231
:100240003E4BFB613B6ABB6107E0BB691A1DBA61AB
:100250007A6A111D796212681A60FA69BB699A425A
:10026000F3D8324B1A68364B9A4205D1304B1A6894
:100270002F4B1B689A4200D0FEE700F03DFB3A1D71
:100280003B461046194600F01DFB2E4A2E4BD31A52
:100290009B107B6100233B6107E02B4B3A6953F8CD
:1002A000223098473B6901333B617A693B699A4246
:1002B000F3DC264A264BD31A9B107B6100233B615B
:1002C00007E0234B3A6953F8223098473B690133E2
:1002D0003B617A693B699A42F3DC7A683B68104675
:1002E000194602F055FF78631A4A1B4BD31A9B102C
:1002F000FB60FB68BB6008E0BB685A1E164B53F8F6
:1003000022309847BB68013BBB60BB68002BF3DC25
:10031000786B00F09DFA00BFC8080020BABADECAA8
:10032000000C0020C8080020040C00200000002061
:10033000C4080020C4A3000800000020C808002052
:1003400078563412B4030008B4030008B40300085C
:10035000B4030008B4030008B403000880B500AF7C
:10036000FFF740FF80B400AFFEE700BF80B400AFEE
:10037000FEE700BF80B400AFFEE700BF80B400AF6F
:10038000FEE700BF80B400AFFEE700BF80B400AF5F
:10039000FEE700BF80B400AFFEE700BF80B400AF4F
:1003A000FEE700BF80B400AFFEE700BF80B400AF3F
:0403B000FEE700BFA5
:1003B80080B483B000AF7860054A7B6843F0BF63C0
:1003C80043F40033D3600C37BD465DF8047B7047B7
:1003D80000ED00E080B487B000AF786000237B6157
:1003E80000233B610F23FB607B68DB78002B38D050
:1003F800264BDB68DB4303F4E0631B0A7B617B6904
:10040800C3F104033B617B69FA6822FA03F3FB60DA
:100418007B685B781A463B6902FA03F37B617B6869
:100428009B781A46FB6813407A6913437B617B69A2
:100438001B017B6116497B681B787A69D2B20B4431
:1004480083F80023124B7A6812785209D2B279687D
:10045800097801F01F01012000FA01F143F8221088
:100468000EE00B4B7A6812785209D2B27968097893
:1004780001F01F01012000FA01F1203243F8221097
:100488001C37BD465DF8047B704700BF00ED00E0F7
:1004980000E100E080B489B000AF786039600023E3
:1004A800FB6100233B610023BB610023FB60002349
:1004B8007B610023BB603B68DB7803F00F03FB61C3
:1004C8003B68DB7803F01003002B04D03B689B7873
:1004D800FA691343FB613B681B88DBB2002B44D0ED
:1004E8007B681B687B610023BB6138E0BB69012224
:1004F80002FA03F3FB603B681B881A46FB6813404B
:100508003B613A69FB689A4226D1BB699B00FB6054
:10051800FB680F2202FA03F3BB60BB68DB437A690E
:1005280013407B61FB68FA6902FA03F37A691343A3
:100538007B613B68DB78282B05D1BB6901229A4097
:100548007B685A6108E03B68DB78482B04D1BB69BB
:1005580001229A407B681A61BB690133BB61BB69A0
:10056800072BC3D97B687A691A603B681B88FF2B05
:1005780046D97B685B687B610023BB613AE0BB6955
:100588000833012202FA03F3FB603B681B881A4612
:10059800FB6813403B613A69FB689A4227D1BB6903
:1005A8009B00FB60FB680F2202FA03F3BB60BB6889
:1005B800DB437A6913407B61FB68FA6902FA03F34B
:1005C8007A6913437B613B68DB78282B05D1BB69CB
:1005D800083301229A407B685A613B68DB78482BD4
:1005E80005D1BB69083301229A407B681A61BB694F
:1005F8000133BB61BB69072BC1D97B687A695A6033
:100608002437BD465DF8047B704700BF80B483B0D3
:1006180000AF78607B684FF6FF721A807B68022211
:100628009A707B680422DA700C37BD465DF8047B4B
:10063800704700BF80B483B000AF78600B467B8002
:100648007A887B681A610C37BD465DF8047B704771
:1006580080B483B000AF78600B467B807A887B6873
:100668005A610C37BD465DF8047B704780B487B08B
:1006780000AF786000237B6100233B610023FB60AF
:100688000023BB604D4B5B6803F00C037B617B6907
:10069800042B07D0082B09D0002B34D17B68484A9B
:1006A8001A6034E07B68464A1A6030E0434B5B6866
:1006B80003F470133B61414B5B6803F48033FB60C8
:1006C8003B699B0C02333B61FB68002B06D13B69FD
:1006D8003C4A02FB03F27B681A6013E0374B5B6805
:1006E80003F40033002B06D03B69364A02FB03F2C1
:1006F8007B681A6006E03B69314A02FB03F27B68BB
:100708001A6004E003E07B682D4A1A6000BF2B4B97
:100718005B6803F0F0037B617B691B097B612A4AF4
:100728007B6913441B78DBB2BB607B681A68BB68C3
:10073800DA407B685A60214B5B6803F4E0637B61B5
:100748007B691B0A7B61204A7B6913441B78DBB2F7
:10075800BB607B685A68BB68DA407B689A60174B55
:100768005B6803F460537B617B69DB0A7B61164A33
:100778007B6913441B78DBB2BB607B685A68BB6833
:10078800DA407B68DA600D4B5B6803F440437B61B9
:100798007B699B0B7B610D4A7B6913441B78DBB239
:1007A800BB607B68DA68BB68B2FBF3F27B681A61EE
:1007B8001C37BD465DF8047B704700BF001002403F
:1007C80000127A0000093D000400002014000020F7
:1007D80080B483B000AF78600B46FB70FB78002BC9
:1007E80006D0094B084A51697A680A435A6106E0FB
:1007F800054B054A51697A68D2430A405A610C3759
:10080800BD465DF8047B70470010024080B483B099
:1008180000AF78600B46FB70FB78002B06D0094BC5
:10082800084A91697A680A439A6106E0054B054AC5
:1008380091697A68D2430A409A610C37BD465DF8DF
:10084800047B70470010024080B483B000AF78602A
:10085800FEE700BF80B584B000AF7860144B1B681A
:10086800002B02D1124B134A1A60114B1B68FB6014
:100878007B68033323F003037B600D4B1A687B68A6
:100888001A440D4B9A4207D903F026F903460C2265
:100898001A604FF0FF3306E0054B1A687B681A446C
:1008A800034B1A60FB6818461037BD4680BD00BF71
:1008B800CC080020040C002000FC002080B483B089
:1008C80000AF786039607B6801221A603B68044A8F
:1008D8001A6000BF0C37BD465DF8047B704700BF47
:1008E8001800002080B500AF00F008F880BD00BFF8
:1008F80080B500AF00F036F880BD00BF80B500AF0E
:10090800154B154A126842F001021A60124A124B3E
:100918005968124B0B4053600F4A0F4B1B6823F06A
:10092800847323F4803313600B4B0B4A126822F450
:1009380080221A60084B084A526822F4FE025A6064
:10094800054B4FF41F029A6000F078F8044B4FF003
:1009580000629A6080BD00BF001002400000FFF8EE
:1009680000ED00E080B485B000AF0023FB600023F9
:10097800BB6000237B602C4B5B6803F00C03FB60BF
:10098800FB68042B07D0082B09D0002B34D1274B48
:10099800274A1A6034E0254B254A1A6030E0224B7A
:1009A8005B6803F47013BB601F4B5B6803F4803310
:1009B8007B60BB689B0C0233BB607B68002B06D155
:1009C800BB681C4A02FB03F2184B1A6013E0164B73
:1009D8005B6803F40033002B06D0BB68154A02FBA2
:1009E80003F2124B1A6006E0BB68114A02FB03F2DD
:1009F8000E4B1A6004E003E00C4B0D4A1A6000BF6E
:100A0800094B5B6803F0F0031B090B4AD35CDBB2AC
:100A1800FB60064B1A68FB68DA40044B1A6014370F
:100A2800BD465DF8047B704700100240200000209E
:100A380000127A0000093D002400002080B500AFB4
:100A480000F002F880BD00BF80B483B000AF00237F
:100A58007B6000233B603A4B394A126842F480328B
:100A68001A60374B1B6803F400333B607B68013323
:100A78007B603B68002B03D17B68B3F5A06FF0D196
:100A88002F4B1B6803F40033002B02D001233B607B
:100A980001E000233B603B68012B4BD1294B294ADD
:100AA800126842F010021A60264B264A126822F099
:100AB80003021A60234B234A126842F002021A60AA
:100AC8001F4B1F4A52685A601D4B1D4A52685A6094
:100AD8001B4B1B4A526842F480625A60184B184AF2
:100AE800526822F47C125A60154B154A526842F437
:100AF800E8125A60124B124A126842F080721A6069
:100B080000BF0F4B1B6803F00073002BF9D00C4B90
:100B18000B4A526822F003025A60094B084A52688D
:100B280042F002025A6000BF054B5B6803F00C03F9
:100B3800082BF9D10C37BD465DF8047B704700BF20
:100B4800001002400020024080B483B000AF7860FB
:100B580039607B68D3F8C8303A68D1B27A68D15422
:100B68007B68D3F8C8305A1C7B68C3F8C8200C3798
:100B7800BD465DF8047B704780B485B000AF7860EF
:100B88000023FB6007E07A68FB68134400221A70B0
:100B9800FB680133FB607B68D3F8C820FB689A4286
:100BA800F1D87B680022C3F8C8207B68002283F84C
:100BB800CC201437BD465DF8047B704780B584B0FF
:100BC80000AF78607B6893F8CC30DBB2002B02D0A2
:100BD800012B43D073E03C4BDB683B489847F860F7
:100BE800FB68B3F1FF3F36D0FB68DBB2412B04D082
:100BF800542B07D02B2B14D026E07868F968FFF720
:100C0800A3FF27E07B681B78412B04D17868F9683B
:100C1800FFF79AFF1EE07868FFF7AEFF4FF0FF334B
:100C28004EE07B685B78542B08D17868F968FFF749
:100C38008BFF7B68012283F8CC200BE07868FFF7F4
:100C48009BFF4FF0FF333BE07868FFF795FF4FF0CD
:100C5800FF3335E033E04FF0FF3331E01A4BDB6808
:100C680019489847F860FB68B3F1FF3F23D0FB6849
:100C7800DBB2002B22D0FB68DBB20A2B1ED07868CF
:100C8800F968FFF761FFFB68DBB23B2B16D17B6885
:100C9800022283F8CC200C4B5B78012B0ED10A4B37
:100CA8001B69094809499847074B1B697A68064830
:100CB8000749984702E04FF0FF3301E000BF0023E7
:100CC80018461037BD4680BDF4090020D4860008B8
:100CD800E486000880B584B000AF78600023FB602C
:100CE80014E07968FA6813465B0013445B000C4A09
:100CF800134408461946052202F024FF0346002B38
:100D080001D1FB6807E0FB680133FB60FB68252B1A
:100D1800E7DD4FF0FF3318461037BD4680BD00BFF2
:100D2800F085000890B587B000AF78603960274B30
:100D38003B61274BFB607B685B793B2B01D1002330
:100D480040E07B685B793D2B02D04FF0FF3339E000
:100D58007B680633BB6000237B617B699B003A6834
:100D6800D418B868396902F047FF034623600CE0DD
:100D78007B6901337B617B699B003A68D41800204A
:100D8800396902F039FF034623607B699B003A68A2
:100D980013441B68002BEBD17B6903F18043013BB3
:100DA8009B003A68D4187B6903F18043013B9B00A0
:100DB8003A6813441B681846F96802F01DFF034699
:100DC80023607B6918461C37BD4690BDE88600083D
:100DD800EC86000880B58AB000AF78607B6893F82D
:100DE800CC30DBB2022B3FD17868FFF773FF786213
:100DF8007B6AB3F1FF3F0ED11E4B5B78012B04D108
:100E08001C4B1B691B481C4998477868FFF7B4FEC0
:100E18004FF0FF332AE007F1080378681946FFF717
:100E280081FF38623B6AB3F1FF3F0ED1114B5B780B
:100E3800012B04D10F4B1B690E481049984778685D
:100E4800FFF79AFE4FF0FF3310E07B687A6A36327C
:100E580053F8223007F108021046396A9847786833
:100E6800FFF78AFE002301E04FF0FF3318462837CA
:100E7800BD4680BDF4090020F08600080C870008F4
:100E880080B584B000AF786039603B68012B0AD028
:100E9800164B5B78012B05D1144B1B691348144979
:100EA800984720E01FE07B681B681B78FB73FB7B7F
:100EB800302B02D0312B06D00BE00C4B5B690B4872
:100EC800002198470FE0094B5B69084801219847C2
:100ED80009E0064B5B78012B04D1044B1B690348DE
:100EE8000449984700BF1037BD4680BDF40900206B
:100EF800208700083487000890B585B000AF786077
:100F08003960154B5B78012B22D1134B1B691248B2
:100F1800124998473B68002B04D10F4B1B690E48B8
:100F28000F4998470023FB600EE00B4B1C69FB68D8
:100F38005A1CFB689B0079680B441B6806480949E2
:100F4800A047FB680133FB60FA683B689A42ECDB18
:100F58001437BD4690BD00BFF4090020548700082F
:100F6800848700089487000880B485B000AF786053
:100F78000023FB6007E07A68FB68134400221A70BC
:100F8800FB680133FB60FB68C72BF4D97B68002240
:100F9800C3F8C8207B68002283F8CC207B68A04A6D
:100FA800C3F8D0207B689F4AC3F8D4200023FB6095
:100FB800FB685A1CFA609C4A51687A68363342F8D2
:100FC8002310FB685A1CFA60974A91687A6836338E
:100FD80042F82310FB685A1CFA60934AD1687A6871
:100FE800363342F82310FB685A1CFA608E4A11699E
:100FF8007A68363342F82310FB685A1CFA608A4A2A
:1010080051697A68363342F82310FB685A1CFA6033
:10101800854A91697A68363342F82310FB685A1C6E
:10102800FA60814AD1697A68363342F82310FB683E
:101038005A1CFA607C4A116A7A68363342F82310DF
:10104800FB685A1CFA60784A516A7A68363342F863
:101058002310FB685A1CFA60734A916A7A6836331F
:1010680042F82310FB685A1CFA606F4AD16A7A6802
:10107800363342F82310FB685A1CFA606A4A116B2F
:101088007A68363342F82310FB685A1CFA60664ABD
:10109800516B7A68363342F82310FB685A1CFA60A1
:1010A800614A916B7A68363342F82310FB685A1C00
:1010B800FA605D4AD16B7A68363342F82310FB68D0
:1010C8005A1CFA60584A116C7A68363342F8231071
:1010D800FB685A1CFA60544A516C7A68363342F8F5
:1010E8002310FB685A1CFA604F4A916C7A683633B1
:1010F80042F82310FB685A1CFA604B4AD16C7A6894
:10110800363342F82310FB685A1CFA60464A116DC0
:101118007A68363342F82310FB685A1CFA60424A50
:10112800516D7A68363342F82310FB685A1CFA600E
:101138003D4A916D7A68363342F82310FB685A1C91
:10114800FA60394AD16D7A68363342F82310FB6861
:101158005A1CFA60344A116E7A68363342F8231002
:10116800FB685A1CFA60304A516E7A68363342F886
:101178002310FB685A1CFA602B4A916E7A68363342
:1011880042F82310FB685A1CFA60274AD16E7A6825
:10119800363342F82310FB685A1CFA60224A116F52
:1011A8007A68363342F82310FB685A1CFA601E4AE4
:1011B800516F7A68363342F82310FB685A1CFA607C
:1011C800194A916F7A68363342F82310FB685A1C23
:1011D800FA60154AD16F7A68363342F82310FB68F3
:1011E8005A1CFA60104AD2F880107A68363342F8EE
:1011F800231007E0FB685A1CFA607A6836330B49FB
:1012080042F82310FB68242BF4D97B68084AC3F8FA
:101218006C21002318461437BD465DF8047B7047DF
:10122800C50B0008DD0D00080C0A0020010F00089E
:10123800890E000880B598B000AF4FF48070012186
:10124800FFF7C6FA40F2E9100121FFF7DFFA4CF286
:101258003373A7F85C30032387F85E30182387F8C8
:101268005F3007F15C033E481946FFF713F94FF664
:101278008073A7F85C3007F15C033A481946FFF71A
:1012880009F94FF40063A7F85C3007F15C033448B0
:101298001946FFF7FFF88023A7F85C3007F15C03D5
:1012A8002F481946FFF7F6F80423A7F85C30032304
:1012B80087F85E30102387F85F3007F15C03284811
:1012C8001946FFF7E7F80823A7F85C30032387F8E7
:1012D8005E30102387F85F3007F15C032048194619
:1012E800FFF7D8F83B1D7B653B1DBB6507F1200365
:1012F800184602F005F801237B600023BB60052334
:10130800FB6000233B6100237B610023BB614FF03E
:101318008053FB6100233B6200237B620823BB628E
:101328001023FB6200233B630023BB630023FB63A2
:1013380000233B644FF480537B640023BB64002389
:10134800FB6400233B6507F12003184601F03EFFCC
:101358000020012102F03EF86037BD4680BD00BF85
:10136800001401400018014080B483B000AF034668
:101378003960FB7197F90730002B0BDA0D49FB79BF
:1013880003F00F03043B3A68D2B21201D2B20B4405
:101398001A7609E0084997F907303A68D2B212017B
:1013A800D2B20B4483F800230C37BD465DF8047BAA
:1013B800704700BF00ED00E000E100E080B582B0BA
:1013C80000AF78607B68013BB3F1807F01D30123D4
:1013D8000FE00A4B7A68013A5A604FF0FF300F214C
:1013E800FFF7C2FF054B00229A60044B07221A60E0
:1013F800002318460837BD4680BD00BF10E000E056
:1014080080B500AF064B1A68064BA3FB02139B0975
:101418001846FFF7D3FF0346002B00D0FEE780BD38
:1014280020000020D34D621080B483B000AF7860F4
:101438007A68064B1A6000BF044B1B68002BFBD16F
:101448000C37BD465DF8047B704700BFD408002008
:1014580080B400AF064B1B68002B04D0044B1B68FC
:101468005A1E034B1A60BD465DF8047B704700BFE7
:10147800D408002080B500AFFFF7EAFF80BD00BFA9
:1014880080B487B000AFF860B9607A60FB6803F099
:10149800F8031A02BB6803F0FC03DB001A437B68FD
:1014A80003F0F803DB0813437B617B6918461C379C
:1014B800BD465DF8047B704780B483B000AF7860A8
:1014C8004FF0C0437A6892B21A800C37BD465DF877
:1014D800047B704780B483B000AF786039604FF008
:1014E800C0437A6892B21A80044B3A6892B21A8062
:1014F8000C37BD465DF8047B704700BF00000260F2
:1015080080B483B000AF7860044B7A6892B21A80D6
:101518000C37BD465DF8047B704700BF00000260D1
:1015280080B485B000AF78607B68BB600023FB6047
:1015380014E0BB681B782F2B0DD9BB681B78392B9F
:1015480009D8FB68DA00FB685B001A44BB681B78A3
:101558001344303BFB60BB680133BB60BB681B783E
:10156800002BE6D1FB6818461437BD465DF8047BAE
:10157800704700BF80B584B000AFF860B9607A608A
:101588003B607B681A02FB68134444201946FFF746
:10159800A1FF4520B968FFF79DFF46203968FFF78E
:1015A80099FF4E20F968FFF795FF4F20B968FFF7BC
:1015B80091FF2220FFF780FF1037BD4680BD00BF96
:1015C80080B584B000AF786039607B681B68FB60C9
:1015D8003B68002B03D0FB680133FB60D3E06B480A
:1015E8000421FFF735F80420FFF71EFF67480421A0
:1015F800FFF720F80A20FFF717FF00200121FFF767
:1016080069FF03204AF6A401FFF764FF0C200021BC
:10161800FFF760FF0D2040F60C01FFF75BFF0E207F
:101628004FF42C51FFF756FF1E20B721FFF752FF4A
:10163800012042F63F31FFF74DFF02204FF4C06111
:10164800FFF748FF10200021FFF744FF112046F262
:101658007001FFF73FFF05200021FFF73BFF062041
:101668000021FFF737FF16204EF61C71FFF732FFF7
:1016780017200321FFF72EFF072040F23321FFF741
:1016880029FF0B200021FFF725FF0F200021FFF77E
:1016980021FF41200021FFF71DFF42200021FFF715
:1016A80019FF48200021FFF715FF492040F23F119C
:1016B800FFF710FF4A200021FFF70CFF4B20002105
:1016C800FFF708FF44204FF46F41FFF703FF452061
:1016D8000021FFF7FFFE462040F23F11FFF7FAFE18
:1016E800302040F20771FFF7F5FE31204FF4017109
:1016F800FFF7F0FE32204FF40171FFF7EBFE3320C5
:1017080040F20251FFF7E6FE342040F20751FFF79E
:10171800E1FE35204FF40171FFF7DCFE36204FF46F
:101728000171FFF7D7FE372040F20251FFF7D2FED2
:101738003A2040F20231FFF7CDFE3B2040F2023161
:10174800FFF7C8FE23200021FFF7C4FE2420002154
:10175800FFF7C0FE25204FF40041FFF7BBFE4F20E6
:101768000021FFF7B7FE4E200021FFF7B3FE22202D
:10177800FFF7A2FE064B5B78012B04D1044B1B69D3
:101788000348044998471037BD4680BD00140140FE
:10179800F4090020E49F000880B588B000AF7860A5
:1017A80039603B68012B02D0032B0AD02CE07B6800
:1017B8001B681846FFF7B4FE0346BB60BB687B6135
:1017C80026E00023FB6112E0FB699B007A68134462
:1017D8001B681846FFF7A4FE0246FB699B0007F149
:1017E80020010B4443F8182CFB690133FB61FB69AA
:1017F800022BE9D9B968FA683B69084611461A46C6
:10180800FFF73EFE786103E0144B1B687B6100BF65
:10181800134B1B685A1E134B1B68013B0020002109
:10182800FFF7A8FE0023FB6110E00023BB6105E081
:101838007869FFF765FEBB690133BB61084B1B681C
:10184800BA699A42F4D3FB690133FB61054B1B6803
:10185800FA699A42E9D32037BD4680BD340000209A
:10186800DC080020E008002080B586B000AF786072
:1018780039603B68002B06D07B681B68FB60FB68FF
:101888000133FB6024E0144B1B685A1E134B1B6882
:10189800013B00200021FFF76DFE00237B6112E071
:1018A80000233B6107E00E4B1B681846FFF728FE34
:1018B8003B6901333B61084B1B683A699A42F2D392
:1018C8007B6901337B61054B1B687A699A42E7D3D0
:1018D8001837BD4680BD00BFDC080020E0080020A6
:1018E8003400002080B586B000AF786039603B686E
:1018F800012B02D0032B09D025E07B681B68184612
:10190800FFF70EFE0246114B1A601CE07B681B684D
:101918001846FFF705FE78617B6804331B68184694
:10192800FFF7FEFD38617B6808331B681846FFF730
:10193800F7FDF86078693969FA68FFF7A1FD024692
:10194800024B1A6000BF1837BD4680BDD80800207A
:1019580080B584B000AF786039603B68002B06D052
:101968007B681B68FB60FB680133FB6006E0054B86
:101978001B69054A12680348044998471037BD4651
:1019880080BD00BFF4090020D8080020FC9F000893
:1019980080B586B000AF786039603B68012B02D013
:1019A800032B09D025E07B681B681846FFF7B8FDB4
:1019B8000246114B1A601CE07B681B681846FFF74B
:1019C800AFFD78617B6804331B681846FFF7A8FDF4
:1019D80038617B6808331B681846FFF7A1FDF8607B
:1019E80078693969FA68FFF74BFD0246024B1A60BD
:1019F80000BF1837BD4680BD3400002080B584B0D4
:101A080000AF786039603B68002B06D07B681B68A4
:101A1800FB60FB680133FB6006E0054B1B69054A68
:101A280012680348044998471037BD4680BD00BF77
:101A3800F40900203400002010A0000880B582B00E
:101A480000AF78603960786839687A683B68FFF772
:101A580091FD044B1B681846FFF752FD0837BD4639
:101A680080BD00BFD808002080B584B000AF786082
:101A780039603B68022B1AD17B681B681846FFF750
:101A88004FFDF8607B6804331B681846FFF748FD74
:101A9800B860084B1B68FA689A4208D2064B1B6864
:101AA800BA689A4203D2F868B968FFF7C7FF1037D7
:101AB800BD4680BDDC080020E008002080B588B065
:101AC80000AFF860B9607A603B603B687B617B6916
:101AD80001337B61FA687B689A420AD97868B968E9
:101AE800FA68BB68FFF746FDFA687B68D31ABB61E2
:101AF80009E0F868B9687A68BB68FFF73BFD7A685F
:101B0800FB68D31ABB610023FB6107E0074B1B6826
:101B18001846FFF7F5FCFB690133FB61FA69BB69FD
:101B28009A42F3D32037BD4680BD00BFD8080020B5
:101B380080B588B000AFF860B9607A603B607B68B8
:101B48007B617B6901337B61BA683B689A420AD939
:101B5800F8683968FA68BB68FFF70CFDBA683B6833
:101B6800D31ABB6109E0F868B968FA683B68FFF7FF
:101B780001FD3A68BB68D31ABB610023FB6107E02B
:101B8800074B1B681846FFF7BBFCFB690133FB6179
:101B9800FA69BB699A42F3D32037BD4680BD00BFBE
:101BA800D808002080B592B000AFF860B9607A60BC
:101BB8003B607A68FB689A4203D97A68FB68D31A53
:101BC80002E0FA687B68D31ABB613A68BB689A423C
:101BD80003D93A68BB68D31A02E0BA683B68D31ADB
:101BE8007B61BA697B699A4218DBBB6901333B6444
:101BF8007B695A00BB69D31AFB637B695B00BB63D3
:101C08007A69BB69D31A5B007B630123FB620123FA
:101C1800BB6200233B620123FB6117E07B69013350
:101C28003B64BB695A007B69D31AFB63BB695B00E1
:101C3800BB63BA697B69D31A5B007B630023FB62D1
:101C48000123BB6201233B620123FB61FA687B68C5
:101C58009A4205D9FB6A5B42FB62BB6A5B42BB6284
:101C6800BA683B689A4205D93B6A5B423B62FB69AA
:101C78005B42FB61FB683B63BB687B6201237B645F
:101C880029E0386B796A3A6B7B6AFFF773FC154B6E
:101C98001B681846FFF734FCFB6B002B0CDAFA6B59
:101CA800BB6B1344FB633A6BFB6A13443B637A6A6E
:101CB8003B6A13447B620BE0FA6B7B6B1344FB6358
:101CC8003A6BBB6A13443B637A6AFB6913447B62D1
:101CD8007B6C01337B647A6C3B6C9A42D1DB48376E
:101CE800BD4680BDD808002080B582B000AF14235F
:101CF8007B6014209621DC229623FFF7DFFE7820F4
:101D08000A2178224FF49B73FFF712FF08E0142092
:101D1800962178227B68FFF745FF7B6819337B6043
:101D2800034B1B687A689A42F1D30837BD4680BDD9
:101D3800E008002080B588B000AF786039603B6863
:101D4800042B06D03B68002B02D1FFF7CDFF4AE0F9
:101D580049E00023FB6112E0FB699B007A681344A9
:101D68001B681846FFF7DCFB0246FB699B0007F17E
:101D780020010B4443F8142CFB690133FB61FB6918
:101D8800032BE9D9FA68194B1B689A420ED27A6973
:101D9800164B1B689A4209D23A69154B1B689A423E
:101DA80004D2BA69124B1B689A4200D31BE0FA6846
:101DB8007B699A4206D1F86839697A69BB69FFF785
:101DC800B7FE10E03A69BB699A4206D1F8683969EA
:101DD8007A69BB69FFF772FE05E0F86839697A69C4
:101DE800BB69FFF7DFFE2037BD4680BDDC08002059
:101DF800E008002080B584B000AFF860B9607A6070
:101E08003B60F868B9687A68BB68FFF757FEF868FE
:101E180039687A683B68FFF751FEF868B968FA686C
:101E28003B68FFF785FE7868B9687A683B68FFF712
:101E38007FFE78683968FFF701FE1037BD4680BD20
:101E480080B584B000AF0023FB600023BB60134B58
:101E58001B68013B7B60124B1B68013B3B6011E038
:101E6800F868B9687A683B68FFF7C4FFFB680A330B
:101E7800FB607B680A3B7B60BB680A33BB603B68DE
:101E88000A3B3B60FA687B689A4203D2BA683B68AF
:101E98009A42E5D31037BD4680BD00BFDC0800205C
:101EA800E008002080B588B000AF786039603B68F2
:101EB800042B06D03B68002B02D1FFF7C1FF34E0AA
:101EC80033E00023FB6112E0FB699B007A6813444E
:101ED8001B681846FFF724FB0246FB699B0007F1C5
:101EE80020010B4443F8142CFB690133FB61FB69A7
:101EF800032BE9D9FA680E4B1B689A420ED27A690D
:101F08000B4B1B689A4209D23A690A4B1B689A42E2
:101F180004D2BA69074B1B689A4200D305E0F868F7
:101F280039697A69BB69FFF765FF2037BD4680BD0F
:101F3800DC080020E008002080B58AB000AFF86017
:101F4800B9607A607B68C3F101037B6201233B625D
:101F58007A681346DB079B1A5B00FB610023BB61B1
:101F68007B687B61FA68B9687B680B441046194640
:101F7800FFF764FDFA68B9687B68CB1A1046194602
:101F8800FFF75CFDFA687B6813441A46BB68104685
:101F98001946FFF753FDFA687B68D31A1A46BB68DF
:101FA80010461946FFF74AFD6EE07B6A002B09DBF5
:101FB8007B69013B7B61FB690233FB617A6AFB69E0
:101FC80013447B62BB690133BB613B6A02333B62EA
:101FD8007A6A3B6A13447B62FA68BB6913441A46FF
:101FE800B9687B690B4410461946FFF727FDFA6864
:101FF800BB69D31A1A46B9687B690B44104619465F
:10200800FFF71CFDFA68BB6913441A46B9687B6977
:10201800CB1A10461946FFF711FDFA68BB69D31AA7
:102028001A46B9687B69CB1A10461946FFF706FDB0
:10203800FA687B6913441A46B968BB690B441046B1
:102048001946FFF7FBFCFA687B69D31A1A46B96888
:10205800BB690B4410461946FFF7F0FCFA687B6928
:1020680013441A46B968BB69CB1A10461946FFF7DC
:10207800E5FCFA687B69D31A1A46B968BB69CB1ABA
:1020880010461946FFF7DAFCBA697B699A428CDB7D
:102098002837BD4680BD00BF80B588B000AF782323
:1020A800BB61A0237B610A23FB61BA69FB69D31A70
:1020B8007B60BA69FB691344BB607A69FB69D31A10
:1020C800FB607A69FB6913443B611AE0B9697A6974
:1020D800FB69084611461A46FFF72EFFFB690A33CB
:1020E800FB61BA69FB69D31A7B60BA69FB6913445F
:1020F800BB607A69FB69D31AFB607A69FB69134490
:102108003B617B68002B0CDBBA68074B1B689A4263
:1021180007DAFB68002B04DB3A69044B1B689A4218
:10212800D4DB2037BD4680BDDC080020E008002055
:1021380080B586B000AF786039603B68032B06D065
:102148003B68002B02D1FFF7A7FF45E044E00023DE
:102158007B6113E07B699B007A6813441B6818460F
:10216800FFF7DEF903461A467B699B0007F1180161
:102178000B4443F8102C7B6901337B617B69022B8C
:10218800E8D9BA68164B1B689A421CDAFA68154BEC
:102198001B689A4217DABA683B691A44104B1B68E5
:1021A8009A4210DABA683B69D31A002B0BDBFA683B
:1021B8003B691A440B4B1B689A4204DAFA683B697C
:1021C800D31A002B00DA07E0B968FA683B690846B9
:1021D80011461A46FFF7B0FE1837BD4680BD00BF4E
:1021E800DC080020E008002080B58EB000AFF86061
:1021F800B9607A603B603B6CC3F101037B630123E8
:102208003B633A6C1346DB079B1A5B00FB620023B7
:10221800BB623B6C7B62FA683B6C13443B62BA68F6
:102228003B6C1344FB617A68FB68D21A3B6C5B0019
:10223800D31ABB613A68BB68D21A3B6C5B00D31AED
:102248007B6176E07B6B002B09DB7B6A013B7B6261
:10225800FB6A0233FB627A6BFB6A13447B63BB6ADB
:102268000133BB623B6B02333B637A6B3B6B1344BA
:102278007B63BB6A3A6AD21A7B6AF969CB1A104641
:102288001946FFF7DBFBBB6A3A6AD21A796AFB691F
:1022980019447B690B4410461946FFF7CFFBBA6A0D
:1022A8003B6A1A44BB691A44796AFB6919447B6919
:1022B8000B4410461946FFF7C1FBBA6A3B6A1A4439
:1022C800BB691A447B6AF969CB1A10461946FFF7AD
:1022D800B5FB7B6A3A6AD21ABB6AF969CB1A10460F
:1022E8001946FFF7ABFB7B6A3A6AD21AB96AFB69EF
:1022F80019447B690B4410461946FFF79FFB7A6A1D
:102308003B6A1A44BB691A44B96AFB6919447B6978
:102318000B4410461946FFF791FB7A6A3B6A1A4448
:10232800BB691A44BB6AF969CB1A10461946FFF70C
:1023380085FBBA6A7B6A9A4284DBFA683B6C1A446A
:1023480079683B6CCB1A1046B9681A46BB68FFF728
:10235800B5FBFA683B6C1A4479683B6CCB1A10469B
:1023680039681A463B68FFF7A9FBBA683B6C1A4400
:1023780039683B6CCB1AF8681146FA68FFF7D8FB46
:10238800BA683B6C1A4439683B6CCB1A78681146BA
:102398007A68FFF7CDFB3837BD4680BD80B588B079
:1023A80002AF00237B6100233B61194B1B68013B93
:1023B800FB60184B1B68013BBB603C237B6018E04B
:1023C8007B68009378693969FA68BB68FFF70CFF86
:1023D8007B690A337B61FB680A3BFB603B690A3314
:1023E8003B61BB680A3BBB60FA687B69D31A9B08F0
:1023F8007B607A69FB689A4206D23A69BB689A425E
:1024080002D27B68042BDBD81837BD4680BD00BFDD
:10241800DC080020E008002090B58FB002AF78609B
:1024280039603B68052B09D03B68042B06D03B6814
:10243800002B02D1FFF7B2FF6CE06BE00023FB62D8
:1024480012E0FB6A9B007A6813441B681846FFF782
:1024580067F80246FB6A9B0007F130010B4443F81A
:10246800242CFB6A0133FB623A68FB6A9A42E8D87B
:10247800FA682A4B1B689A420ED87A69274B1B6860
:102488009A4209D83A69264B1B689A4204D8BA6915
:10249800234B1B689A4200D93CE0FA687B699A4250
:1024A80005D9FB68BB627B69FB60BB6A7B613A69E3
:1024B800BB699A4205D93B69BB62BB693B61BB6A90
:1024C800BB617A69FB68D31A7B62BA693B69D31A24
:1024D8003B623B68042B0AD17A6A3B6A9A4202D271
:1024E8007B6A9B0801E03B6A9B08FB610AE0FB6989
:1024F8005A007B6A9A4204D8FB695A003B6A9A429E
:1025080000D907E0F86839697A69BB69FC69009401
:10251800FFF76AFE3437BD4690BD00BFDC080020D7
:10252800E008002080B584B000AFF860B9607A6038
:102538003B6008E0F868B9687A68BB68FFF7BEFADC
:10254800BB680133BB60BA683B689A42F2D910375E
:10255800BD4680BD80B588B000AF786039603B6803
:10256800042B00D03DE00023FB6112E0FB699B00D7
:102578007A6813441B681846FEF7D2FF0246FB69C7
:102588009B0007F120010B4443F8182CFB69013329
:10259800FB61FB69032BE9D9BA68134B1B689A42A4
:1025A8000ED83A69104B1B689A4209D8FA680F4B43
:1025B8001B689A4204D87A690C4B1B689A4200D966
:1025C8000FE0FA687B699A4205D9FB68BB617B69B1
:1025D800FB60BB697B61B868F9683A697B69FFF79A
:1025E800A1FF2037BD4680BDDC080020E0080020A0
:1025F80090B58BB000AFF860B9607A607B68C3F1C2
:1026080001037B6201233B627A681346DB079B1A4E
:102618005B00FB610023BB617B687B61FA687B68B8
:10262800D31A1846B968FA687B6813441A46BB6817
:10263800FFF744FAF868BA687B68D31A1946FA684B
:10264800BC687B682344FFF773FA5AE07B6A002B67
:1026580009DB7B69013B7B61FB690233FB617A6AB9
:10266800FB6913447B62BB690133BB613B6A02337C
:102678003B627A6A3B6A13447B62FA68BB69D31A85
:102688001846BA687B6913441946FA68BB6913444B
:102698001A46BC687B692344FFF710FAFA68BB69DD
:1026A800D31A1846BA687B69D31A1946FA68BB69FF
:1026B80013441A46BC687B69E31AFFF7FFF9FA6806
:1026C8007B69D31A1846BA68BB6913441946FA6875
:1026D8007B6913441A46BC68BB692344FFF7EEF9CB
:1026E800FA687B69D31A1846BA68BB69D31A1946BF
:1026F800FA687B6913441A46BC68BB69E31AFFF79A
:10270800DDF9BA697B699A42A0DB2C37BD4690BDDA
:1027180080B586B000AF786039603B68032B00D085
:1027280044E000237B6113E07B699B007A681344D3
:102738001B681846FEF7F4FE03461A467B699B00A1
:1027480007F118010B4443F8102C7B6901337B61B6
:102758007B69022BE8DDBA68164B1B689A421CDAC3
:10276800FA68154B1B689A4217DABA683B691A442B
:10277800104B1B689A4210DABA683B69D31A002BCF
:102788000BDBFA683B691A440B4B1B689A4204DA64
:10279800FA683B69D31A002B00DA07E0B968FA68CF
:1027A8003B69084611461A46FFF722FF1837BD460F
:1027B80080BD00BFDC080020E008002090B58FB085
:1027C80000AFF860B9607A603B60BB6CC3F101038D
:1027D8007B6301233B63BA6C1346DB079B1A5B00E0
:1027E800FB620023BB62BB6C7B62FA68BB6C134460
:1027F8003B62BA68BB6C1344FB617A68FB68D21A07
:10280800BB6C5B00D31ABB613A68BB68D21ABB6C5D
:102818005B00D31A7B615EE07B6B002B09DB7B6A74
:10282800013B7B62FB6A0233FB627A6BFB6A1344EF
:102838007B63BB6A0133BB623B6B02333B637A6BDE
:102848003B6B13447B63BB6A3A6AD01A7B6AFA69AA
:10285800D11ABA6A3B6A1A44BB691A447B6AFC6992
:10286800E31AFFF72BF97B6A3A6AD01ABB6AFA694E
:10287800D11A7A6A3B6A1A44BB691A44BB6AFC6972
:10288800E31AFFF71BF9BB6A3A6AD01A7A6AFB693E
:102898001A447B69D118BA6A3B6A1A44BB691A445C
:1028A8007C6AFB691C447B692344FFF707F97B6A50
:1028B8003A6AD01ABA6AFB691A447B69D1187A6AEB
:1028C8003B6A1A44BB691A44BC6AFB691C447B69AD
:1028D8002344FFF7F3F8BA6A7B6A9A429CDB0DE05F
:1028E800BA68BB6C1A44B968BB6C0B44F8681146EB
:1028F8007A68FFF7E3F8BB680133BB60BA68BB6C62
:102908001A443968BB6CCB1A9A42E9D93C37BD46A0
:1029180090BD00BF90B58FB002AF786039603B685A
:10292800052B03D03B68042B00D06BE00023FB622F
:1029380012E0FB6A9B007A6813441B681846FEF78E
:10294800EFFD0246FB6A9B0007F130010B4443F898
:10295800242CFB6A0133FB623A68FB6A9A42E8D886
:10296800FA682A4B1B689A420ED87A69274B1B686B
:102978009A4209D83A69264B1B689A4204D8BA6920
:10298800234B1B689A4200D93CE0FA687B699A425B
:1029980005D9FB68BB627B69FB60BB6A7B613A69EE
:1029A800BB699A4205D93B69BB62BB693B61BB6A9B
:1029B800BB617A69FB68D31A7B62BA693B69D31A2F
:1029C8003B623B68042B0AD17A6A3B6A9A4202D27C
:1029D8007B6A9B0801E03B6A9B08FB610AE0FB6994
:1029E8005A007B6A9A4204D8FB695A003B6A9A42A9
:1029F80000D907E0F86839697A69BB69FC6900940D
:102A0800FFF7DCFE3437BD4690BD00BFDC08002070
:102A1800E008002080B588B000AFF860B9601346C0
:102A2800FB712B4B5A68FB6813445A1E284B996854
:102A3800BB680B44013BF868B968FEF79BFDFA795F
:102A4800234BDB68D31A224A5268D2082049896886
:102A580001FB02F202FB03F304337B610023BB6139
:102A680029E01B4B1A687B6913441B78FB7400230D
:102A7800FB7717E0FA7CFB7FC3F1070342FA03F305
:102A880003F00103002B05D0124B1B681846FEF714
:102A980037FD04E0104B1B681846FEF731FDFB7F3D
:102AA8000133FB77FB7F072BE4D97B6901337B611B
:102AB800BB690133BB61064B5B68DB08044A92685B
:102AC80002FB03F2BB699A42CBD82037BD4680BDD2
:102AD80038000020D80800203400002080B586B0D7
:102AE80000AF786039603B68032B00D05AE00023C0
:102AF8007B6112E07B699B007A6813441B68184667
:102B0800FEF70EFD02467B699B0007F118010B4496
:102B180043F8102C7B6901337B617B69012BE9D970
:102B2800BA68224B1968224B5B68CB1A9A4207D2C3
:102B3800FA68204B19681E4B9B68CB1A9A4200D33F
:102B480030E07B689B683B6128E0B968FA683B69BC
:102B58001B78084611461A46FFF75CFFBA68144B03
:102B68005B681344BB60BA68104B1968104B5B680C
:102B7800CB1A9A4206D30023BB60FA680C4B9B68B9
:102B88001344FB60FA680B4B1968094B9B68CB1A16
:102B98009A4200D306E03B6901333B613B691B78ED
:102BA800002BD2D11837BD4680BD00BFDC080020FD
:102BB80038000020E008002080B485B000AF7860BD
:102BC80039603B68012B00D02FE07B681B681B78BD
:102BD800FB73FB7B322B05D0332B07D1154B164AE1
:102BE8001A6007E0134B154A1A6003E0114B144AA8
:102BF8001A6000BF0F4B1B681B781A460D4B5A60B2
:102C08000C4B1B6801331B781A460A4B9A60094B18
:102C18001B6802331B781A46064BDA60054B1B68A3
:102C280003331B781A46034B1A611437BD465DF807
:102C3800047B704738000020009800081C8C0008AE
:102C4800A487000880B584B000AF786039603B681D
:102C5800002B06D07B681B68FB60FB680133FB60B8
:102C68003AE01F4B1A681F4B9A4205D11E4B1B694D
:102C78001D481E4998471AE0194B1A681C4B9A427E
:102C880005D1194B1B6918481A4998470FE0144B8E
:102C98001A68194B9A4205D1134B1B6912481749F8
:102CA800984704E0104B1B690F48154998470E4B8D
:102CB8001B690B4A52680C48124998470A4B1B6912
:102CC800074A9268084810499847074B1B69044A05
:102CD800126905480D4998471037BD4680BD00BFA9
:102CE80038000020A4870008F409002024A0000868
:102CF8001C8C00084CA000080098000870A0000870
:102D08009CA00008BCA00008D0A00008E4A000080F
:102D180080B584B000AF786039603B68002B06D07E
:102D28007B681B68FB60FB680133FB6006E0054BB2
:102D38001B69054A52680348044998471037BD463D
:102D480080BD00BFF40900203800002000A1000861
:102D580080B584B000AF786039603B68002B06D03E
:102D68007B681B68FB60FB680133FB6006E0054B72
:102D78001B69054A92680348044998471037BD46BD
:102D880080BD00BFF4090020380000201CA1000805
:102D980080B584B000AF786039603B68002B06D0FE
:102DA8007B681B68FB60FB680133FB6006E0054B32
:102DB8001B69054A12680348044998471037BD46FD
:102DC80080BD00BFF4090020DC08002038A10008FD
:102DD80080B584B000AF786039603B68002B06D0BE
:102DE8007B681B68FB60FB680133FB6006E0054BF2
:102DF8001B69054A12680348044998471037BD46BD
:102E080080BD00BFF4090020E008002054A100089C
:102E180080B584B000AF786039603B68002B06D07D
:102E28007B681B68FB60FB680133FB600CE0084BA8
:102E38005B78012B04D1064B1B6905480549984767
:102E480005480821FDF7F6FB1037BD4680BD00BFD9
:102E5800F409002070A100080014014080B584B076
:102E680000AF786039603B68002B06D07B681B6830
:102E7800FB60FB680133FB600CE0084B5B78012BBF
:102E880004D1064B1B6905480549984705480821A0
:102E9800FDF7DEFB1037BD4680BD00BFF4090020FA
:102EA8007CA100080014014080B584B000AF7860B0
:102EB80039607B681B68FB603B68BB60FB6801335B
:102EC800FB60BB680133BB60054B5B78012B04D109
:102ED800034B1B690248034998471037BD4680BD1C
:102EE800F409002088A1000880B584B000AF78609C
:102EF8000023FB6010E0FB681A010C4B1344786850
:102F08001946072200F01EFE0346002B01D1FB687C
:102F180007E0FB680133FB60FB68002BEBDD4FF03B
:102F2800FF3318461037BD4680BD00BFD49F000848
:102F380080B584B000AF786039603B68012B00D061
:102F480026E07B681B68FB60F868FFF7CDFFB86078
:102F5800BB68B3F1FF3F0BD10F4B5B78012B06D158
:102F68000D4B1B690C480D49FA68984710E00FE0B3
:102F7800094B5B78012B05D1074B1B6906480849AB
:102F8800FA689847BA68074B1A60064800F044F890
:102F98001037BD4680BD00BFF4090020B0A100086D
:102FA800CCA100080C0A002090B585B000AF78606D
:102FB8003960154B5B78012B22D1134B1B691248E2
:102FC800124998473B68002B04D10F4B1B690E48E8
:102FD8000F4998470023FB600EE00B4B1C69FB6808
:102FE8005A1CFB689B0079680B441B680648094912
:102FF800A047FB680133FB60FA683B689A42ECDB48
:103008001437BD4690BD00BFF4090020E4A10008B4
:1030180008A2000818A2000880B582B000AF786046
:10302800FEF708F9F0223B4B1A604FF4A0723A4BB6
:103038001A607B68394A9A607B68394ADA617B682A
:10304800374A1A627B68364A5A627B68344A9A62FF
:1030580000BF7B68334A5A607B68334ADA607B6812
:10306800324A1A617B68324A5A617B68314A9A61EE
:103078007B68314ADA627B68304A1A637B68304A77
:103088005A637B682F4A9A637B682F4ADA637B68A6
:103098002E4A1A647B682E4A5A647B682D4A9A64C1
:1030A8007B682D4ADA647B682C4A1A657B682C4A4F
:1030B8005A657B682B4A9A657B682B4ADA657B6878
:1030C8002A4A1A667B682A4A5A667B68284A9A6698
:1030D8007B68274ADA667B68264A1A677B68264A2D
:1030E8005A677B68254A9A677B68254ADA677B684E
:1030F800244AC3F880207B689B68002000219847F9
:103108007B68DB6A002000219847002318460837AF
:10311800BD4680BDDC080020E0080020C915000875
:10312800B12E0008392F0008992D0008D92D000864
:10313800192E0008652E000871180008A11700084C
:10314800ED1800085919000899190008051A00080F
:10315800711A00083D1D0008AD1E0008392100083D
:10316800212400085D250008192700081D290008EA
:10317800E52A0008C12B00084D2C0008192D00086D
:10318800592D0008B12F000880B582B000AF7860D3
:103198003960FEF735F90A48012100F001FC0948B9
:1031A800FFF73AFF0848FDF7DFFE074BD3F8D030AA
:1031B80005489847044BD3F8D43003489847F4E7B8
:1031C800F40900200C0A0020900A002080B483B083
:1031D80000AF78604FF020437A68126879684868D1
:1031E8007968896808437968C9680843796809690A
:1031F800084379684969084379688969084379689F
:10320800C96908437968096A08437968496A0843BB
:103218007968896A08437968C96A08437968096BD3
:10322800014343F822107B689B68082B0DD14FF0AF
:1032380020437A6812684FF020417868006851F896
:10324800201041F0400143F822104FF020437A68E3
:10325800126801327968496B08687968496B49686E
:10326800090108437968496B896809020843796844
:10327800496BC968090408437968496B09690905F4
:1032880008437968496B4969090608437968496BB5
:103298008969014343F822107B68DB6AB3F5804FE4
:1032A80020D1164B7A6812687968896B0868796842
:1032B800896B4968090108437968896B896809023B
:1032C80008437968896B0969090508437968896B36
:1032D8004969090608437968896B8969014343F894
:1032E800221006E0054B7A6812686FF0704143F8C7
:1032F80022100C37BD465DF8047B7047040100A01E
:1033080080B483B000AF78607B6800221A607B6865
:1033180002225A607B6800229A607B680022DA6089
:103328007B6800221A617B6800225A617B68002250
:103338009A617B680022DA617B6800221A627B68E6
:103348004FF480525A627B684FF400529A627B684D
:103358000022DA627B6800221A637B685B6B0F22AB
:103368001A607B685B6B0F225A607B685B6BFF227D
:103378009A607B685B6B0F22DA607B685B6B0F225D
:103388001A617B685B6B0F225A617B685B6B00225A
:103398009A617B689B6B0F221A607B689B6B0F227C
:1033A8005A607B689B6BFF229A607B689B6B0F223D
:1033B800DA607B689B6B0F221A617B689B6B0F221C
:1033C8005A617B689B6B00229A610C37BD465DF899
:1033D800047B704780B483B000AF78600B46FB7005
:1033E800FB78002B0CD04FF020434FF02042796837
:1033F80052F8212042F001017A6843F822100BE0CC
:103408004FF020424FF02043796853F82110054BC4
:103418000B40796842F821300C37BD465DF8047BD3
:10342800704700BFFEFF0F0080B58CB000AF78601A
:1034380039600023FB620023BB6200237B62002308
:103448003B620023FB617B68FB617B681B8A9BB244
:10345800FB62FA6A4CF6FF731340FB623B68DB8839
:10346800FA6A1343FB62FB6A9AB27B681A827B682A
:103478009B899BB2FB62FA6A4EF6F3131340FB6218
:103488003B689A883B681B8913439AB23B685B89FF
:1034980013439BB2FA6A1343FB62FB6A9AB27B68D6
:1034A8009A817B689B8A9BB2FB62FA6A4FF6FF435C
:1034B8001340FB623B689B89FA6A1343FB62FB6A11
:1034C8009AB27B689A8207F108031846FDF7CEF88E
:1034D800FA69304B9A4202D17B69BB6201E03B69D1
:1034E800BB627B689B899BB29BB21BB2002B0CDA38
:1034F800BA6A13469B0013449A001A443B681B6837
:103508005B00B2FBF3F37B620BE0BA6A13469B00E5
:1035180013449A001A443B681B689B00B2FBF3F300
:103528007B627A6A1C4BA3FB02135B091B01FB62DB
:10353800FB6A1B09642202FB03F37A6AD31A3B6213
:103548007B689B899BB29BB21BB2002B0DDA3B6A4E
:10355800DB0003F13202104BA3FB02135B0903F0FB
:103568000703FA6A1343FB620CE03B6A1B0103F191
:103578003202094BA3FB02135B0903F00F03FA6A3B
:103588001343FB62FB6A9AB27B681A813037BD46E7
:1035980080BD00BF003801401F85EB5180B483B067
:1035A80000AF78600B46FB70FB78002B08D07B6877
:1035B8009B899BB243F400539AB27B689A8107E0D7
:1035C8007B689B899BB223F400539AB27B689A81EB
:1035D8000C37BD465DF8047B704700BF80B487B0E8
:1035E80000AF786013460A467A807B7000233B61FF
:1035F8000023FB600023BB6000237B617B687B6149
:103608007B88DBB25B09DBB23B617B8803F01F037D
:10361800FB60FB68012202FA03F3BB603B69012BE4
:1036280003D17B690C337B6109E03B69022B03D131
:103638007B6910337B6102E07B6914337B617B78A3
:10364800002B06D07B697A691168BA680A431A6048
:1036580006E07B697A691168BA68D2430A401A6041
:103668001C37BD465DF8047B704700BF80B483B04B
:1036780000AF78600B467B807B88C3F308039AB25F
:103688007B689A800C37BD465DF8047B704700BFA5
:1036980080B483B000AF78607B689B889BB2C3F32B
:1036A80008039BB218460C37BD465DF8047B70478B
:1036B80080B485B000AF78600B467B800023FB7335
:1036C8007B681B889AB27B8813409BB2002B02D080
:1036D8000123FB7301E00023FB73FB7B18461437BF
:1036E800BD465DF8047B704780B485B000AF0346E3
:1036F8003960FB713B681B6C013303F03F03FB60CF
:103708003B6893F84830DBB2022B19D03B681B6C3E
:103718003A68F979D1543B68FA681A64FB6801334E
:1037280003F03F03FB603B685A6CFB689A4201D187
:10373800022300E001233A6882F84830002301E0C0
:103748004FF0FF3318461437BD465DF8047B7047C9
:1037580080B487B000AF78607B685B6893F84830C6
:10376800DBB2002B29D07B685B685B6C013303F00C
:103778003F037B617B685B681B6C3B617B685A68B5
:103788007B685B685B6CD35CFB737B685A687B689F
:103798005B685B6C0021D1547B685B687A695A640A
:1037A8007B685B6879693A6991420CBF0022012203
:1037B800D2B283F84820FB7B01E04FF0FF33184674
:1037C8001C37BD465DF8047B704700BF80B584B0E8
:1037D80000AF78600B46FB707B689B681B6C0133FD
:1037E80003F03F03FB6000BF7B689B6893F8483099
:1037F800DBB2022BF8D07B689A687B689B681B6CED
:10380800F978D1547B689B68FA681A640E4840F2CC
:1038180027710122FFF7E2FEFB68013303F03F0343
:10382800FB607B689A687B689B68596CFB68994267
:1038380001D1022300E0012382F848300023184612
:103848001037BD4680BD00BF0038014080B584B048
:1038580000AF786039603B68FB6009E0FB681B7863
:103868005BB278681946FFF7B1FFFB680133FB606C
:10387800FB681B78002BF1D11037BD4680BD00BF17
:103888000EB480B585B000AF786007F12003BB6047
:103898000A484021FA69BB6800F012FAF860FB6830
:1038A800002B03DD78680549FFF7D0FFFB68184651
:1038B8001437BD46BDE8804003B070477C0900203E
:1038C80080B582B000AF78600B46FB707B68FA78F1
:1038D8005A707B685B78012B06D17B681B697A6814
:1038E80052787868024998470837BD4680BD00BFBE
:1038F80028A2000880B582B000AF26482021FFF733
:10390800D7FE0346FB71FB79012B09D12148FFF74C
:10391800BFFE0346BB71BB7918461F49FFF7E4FE9B
:103928001C488021FFF7C4FE03467B717B79012B7D
:103938002CD11A4B93F84830DBB2002B06D115482E
:1039480040F227710022FFF749FE1FE0134B5B6C22
:10395800124AD35CBB71114B5B6C013303F03F021D
:103968000E4B5A6497F906309BB20A481946FFF77E
:103978007DFE0A4B5A6C094B1B6C9A420CBF002304
:103988000123DBB21A46054B83F848200837BD46A9
:1039980080BD00BF00380140E40800203009002045
:1039A80080B588B000AF786039603B68012B7ED164
:1039B80044F205000121FCF729FF07F10C03184622
:1039C800FCF724FE4FF40073BB811823FB7307F147
:1039D8000C033A481946FCF75DFD4FF48063BB8140
:1039E8000423FB7307F10C0334481946FCF752FD16
:1039F8004FF4E1333B610023BB820023FB820023A9
:103A08003B830023BB830C237B8307F110032C48E3
:103A18001946FFF709FD2A4840F225510122FFF710
:103A2800DDFD27480121FFF7B9FD4FF4E060FCF701
:103A3800BFFC25233B720023BB720123FB7207F1F5
:103A480008031846FCF7C6FC00BF3B68DAB27B687F
:103A58001A707B6800225A707B681A4A5A607B6821
:103A68005B6800221A647B685B6800225A647B6882
:103A78005B68002283F848207B68134A9A607B6859
:103A88009B6800221A647B689B6800225A647B68E2
:103A98009B68002283F848207B680C4ADA607B68C0
:103AA8000B4A1A617B680B4A5A61002301E04FF008
:103AB800FF3318462037BD4680BD00BF00080140CF
:103AC80000380140E4080020300900205937000878
:103AD80089380008C9380008014B1868704700BFCA
:103AE8007804002020F0030110F00300C0F100006A
:103AF80051F8043B00F1040C4FEACC0C6FF00002C3
:103B08001CBF22FA0CF213434FF0010C4CEA0C2CA8
:103B18004CEA0C4CA3EB0C0222EA030212EACC1288
:103B280004BF51F8043B0430F4D013F0FF0F1FBF5B
:103B3800013013F47F4F013013F47F0F18BF0130A9
:103B4800704700BF30B4002A4AD040EA010313F09E
:103B580003032DD1032A2BD904680D68AC4227D161
:103B6800043A3DD0A4F1013525EA040414F0803F5D
:103B78003CD10C4603460EE05B686468A3F101354E
:103B8800A34225EA030513D1043A29D015F0803F52
:103B980029D103460C46032A00F1040001F104016F
:103BA800EAD8551E2AB918792279801A30BC70478C
:103BB800551E03780A7893421AD1DDB1B3B16C1C53
:103BC8000C448B1C014604E0A3420CD001330028AE
:103BD800ECD011F8010F13F8012C9042F4D0E4E76F
:103BE800104630BC7047002030BC70471846DDE7EF
:103BF8001846DAE72846D9E7024A012312685C32F8
:103C080000F002B878040020F0B420B3074617F893
:103C1800016B0D4601E0A64216D015F8014B002CA9
:103C2800F9D1EEB13E4616F8015B0C4600E073B1DF
:103C380014F8013BAB42FAD15DB100233B7016602A
:103C480006463046F0BC704763B13846DEE7374673
:103C5800E8E72E46F3E710680028D7D10646F0E7D4
:103C68001660EEE7176006460370EAE7F0B5141E23
:103C78009BB006461EDB4FF4027214BF04F1FF35F9
:103C8800254600910491ADF80C204FF6FF771A46AF
:103C98006946209B02950595ADF80E7000F022F854
:103CA800431CBCBF8B22326014B1009A00211170F2
:103CB8001BB0F0BD8B2303604FF0FF30F8E700BF67
:103CC80070B5074C82B006460D462068144600932E
:103CD80031462A462346FFF7C9FF02B070BD00BF30
:103CE800780400202DE9F04FC9B010930C9191464B
:103CF8000D9002F01DFA00681590FFF7F3FE0C9C7A
:103D08001890A3891E0603D52369002B01F0818032
:103D180038ACA44608942B9400250024CDE9164518
:103D2800002311932D932C931A9319930E9366469F
:103D380099F80030002B00F0F880252B00F0F58072
:103D480009F1010201E0252B04D013781446013251
:103D5800002BF8D1C9EB04057DB12C9B2D9A0133BA
:103D68002A44072BC6F8009075602D922C9300F317
:103D7800C28008360E9828440E902378002B00F055
:103D8800C280002394F801801A468DF88F300F9373
:103D9800099304F101094FF0FF340A9409F101096C
:103DA800A8F12003582B00F2C583DFE813F06A025C
:103DB800C303C3037102C303C303C303C303C3031E
:103DC800C30314036603C3039D00C000C303780242
:103DD8007F027F027F027F027F027F027F027F02D3
:103DE8007F02C303C303C303C303C303C303C303E0
:103DF800C303C303C30390027103C3037103C30363
:103E0800C303C303C3036A03C303C3037800C30321
:103E1800C303C303C303C3035900C303C303AF02EC
:103E2800C303C303C303C303C303C303C303C3035A
:103E3800C303C30337034803710371037103FF020C
:103E48004803C303C3030803C303C5027C0020035C
:103E5800A303C303D902C3035F00C303C303DE0084
:103E6800DDF824C04CF0100CCDF824C0099CA20643
:103E780000F15483099CE30600F1BD85DDF824C0F8
:103E88001CF0400F00F0B785DDF840C00025BCF8F5
:103E980000400CF1040C0123CDF840C08CE0099DD2
:103EA80045F010050995DDF824C01CF0200340F00A
:103EB8002A83DDF824C01CF0100240F0A485DDF848
:103EC80024C01CF0400300F09E85DDF840C0134676
:103ED800BCF800400CF1040C0025CDF840C06BE0A4
:103EE8000F9C109364420F94099D45F004050995B1
:103EF80099F8008052E70D980C992BAA02F0C0FFA0
:103F080040B938AE36E72D9B23B10D980C992BAAF2
:103F180002F0B6FF0C9C0E98A38913F0400F18BF4F
:103F28004FF0FF3049B0BDE8F08F4C4625E799F8CF
:103F3800008009F10100B8F12A0F01F00C81A8F105
:103F48003003092B98BF002101F26B8010F8018B18
:103F580001EB810103EB4101A8F13003092BF5D9ED
:103F680041EAE1710A9181461AE7099DA14CAF0621
:103F78001A948DF88F2040F1D181DDF840C00CF102
:103F8800070323F0070303F108041094D3E900455D
:103F9800DDF824C01CF0010F00F0628454EA05002B
:103FA80000F05E8430234CF0020C8DF890308DF8D0
:103FB8009180CDF824C002234FF0000A8DF88FA01D
:103FC8000A99002905DBDDF824C02CF0800CCDF817
:103FD80024C054EA050040F0C5820A99002940F03F
:103FE800C182002B40F03884DDF824C01CF0010F9A
:103FF80000F0328448AF3023089D07F8413DEC1BA0
:10400800DDF828C000256445A8BFA446CDF82CC01B
:104018001495BAF1000F02D00B9D01350B95099B41
:1040280013F00203129302D00B9D02350B95DDF8B5
:1040380024C01CF0840CCDF84CC040F090820F9D39
:10404800DDF82CC0CCEB050BBBF1000F40F38782E9
:10405800BBF1100F2D992C9ADFF8A0A12CDD1B972E
:10406800304657461025CA460C9EA1460D9C06E0D0
:10407800ABF1100BBBF1100F00F1080017DD013296
:104088001031072A2D912C9207604560F0DD2046FB
:1040980031462BAA02F0F4FE00287FF43BAFABF1C7
:1040A800100BBBF1100F2D992C9A38A8E7DC4C4661
:1040B800D146BA461B9F064601320BEB010C072A74
:1040C800CDF8B4C02C9286E8000C00F31A849DF851
:1040D8008FA00836BAF1000F0FD02C9B0CF1010C01
:1040E80001330DF18F010122072BCDF8B4C02C93B9
:1040F80086E8060000F3A4830836129B73B12C9B54
:104108000CF1020C013324A90222072BCDF8B4C00C
:104118002C9386E8060000F387830836139D802DCC
:1041280000F0CA820A9DC4EB050ABAF1000F3BDD14
:10413800BAF1100F2C9B304D2BDD0A9432464FF00C
:10414800100B2E4661460D9C0C9D06E0AAF1100A44
:10415800BAF1100F02F1080217DD01331031072BF5
:104168002D912C9382E84008F0DD204629462BAAA1
:1041780002F086FE00287FF4CDAEAAF1100ABAF14B
:10418800100F2D992C9B38AAE7DC0A9C35468C46E3
:1041980016460133D444072BCDF8B4C02C9386E8D7
:1041A800200400F335830836099DED0500F12482CB
:1041B8002C9BA4440133072BCDF8B4C0376074603E
:1041C8002C9300F30F830836099C630749D50F9D8C
:1041D8000B982C1A002C44DD102C2C9BDFF81CA00B
:1041E8002BDD574610256246DDF83080DDF834A017
:1041F8000BE000BF74A2000840A2000894A20008C7
:10420800103C102C06F1080615DD01331032072B7F
:104218002D922C9337607560F2DD504641462BAAEB
:1042280002F02EFE00287FF475AE103C102C2D9A5B
:104238002C9B38AEE9DC9446BA460133A444072BDC
:10424800CDF8B4C02C93C6F800A0746009DD0D98B1
:104258000C992BAA02F014FE00287FF45BAEDDF85F
:10426800B4C00E9C0B980F9DA842ACBF24186419CB
:104278000E94BCF1000F40F0C18200232C9338AE9D
:1042880056E599F80080002A7FF488AD202285E55C
:10429800099D45F00105099599F800807EE5099D7D
:1042A80045F08005099599F8008077E50024A8F184
:1042B80030030F94214619F8018B01EB810103EBC0
:1042C8004101A8F13003092BF5D90F9168E5DDF814
:1042D80024C08DF88F204CF0100CCDF824C0099C18
:1042E800A50640F1B280109DE91D21F00701D1E932
:1042F80000230831109114461D46002A73F1000C62
:10430800C0F294839DF88FA0012359E6099DB64C0D
:10431800AF068DF88F201A943FF52FAE099DED0654
:1043280040F14384DDF840C00025DCF800400CF182
:10433800040CCDF840C02BE6DDF824C08DF88F20A2
:104348001CF0200F00F04084109C21680E9CE5179B
:104358002B46109D224604351095C1E90023E7E459
:10436800109C4FF0000A27688DF88FA0251D002F9C
:1043780000F0E9850A9C3846002CC0F29B8551461E
:10438800224602F075F9002800F013860A9CC01B2B
:10439800A042B8BF0446109524EAE475CDF828A0D9
:1043A800CDF850A00B959DF88FA032E6DDF824C01B
:1043B8004CF0400CCDF824C099F80080EEE499F850
:1043C80000804B46B8F16C0F00F07F84099D45F0E2
:1043D80010050995E2E4109C109D24682B1D002C03
:1043E8000F94FFF67DAD109399F80080D6E4109BEA
:1043F800DDF824C0109D7D4804351C684FF078080E
:1044080030234CF0020C10958DF89030CDF824C074
:1044180000258DF891801A900223CDE5109B109D00
:104428001A680124002304359A460B948DF8B820A5
:1044380010958DF88F300A9314932EAFEFE5099CF1
:104448008DF88F20A5063FF54EAFDDF824C01CF08F
:10445800100F40F0DF82DDF824C01CF0400F00F0A0
:10446800D982DDF840C0BCF900400CF1040CE51716
:1044780022462B46CDF840C03FE799F800802B2212
:104488008CE4099D45F00805099599F8008085E4B4
:10449800109D8DF88F20EB1D23F0070303F1080C06
:1044A800CDF840C0D3E90045CDE91645DDE9160150
:1044B80002F0ACFC0128DDE9160140F05C83002223
:1044C800002303F061FD002840F063859DF88FA06C
:1044D80003250B95099D464F25F08005454B002483
:1044E800099500250A94B8F1470FD8BF1F46032441
:1044F80014958EE5DDF824C04CF0200CCDF824C0CE
:1045080099F800804AE4109CE31D23F0070303F1A7
:1045180008051095D3E9004500234DE5109DEB1DD6
:1045280023F0070303F1080CD3E90045CDF840C098
:10453800012341E58DF88F20B8F1000F3FF4E3AC7B
:1045480000234FF0010C9A46CDF82CC08DF8B880A6
:104558008DF88F300A93149364462EAF5FE5DDF82B
:10456800B4C0B7E5012B00F0EC80022B0DF1DF039E
:1045780018D1DDF868C0194604F00F0022091CF8AC
:10458800000042EA05722B09087052EA03000F4640
:1045980014461D4601F1FF31EED1089DCDE91E23D9
:1045A800EC1B2DE5E00840EA457004F00702E90835
:1045B800303250EA010C1F461A7004460D4603F1CA
:1045C800FF33EFD1099CCDE91C01E007394640F1E2
:1045D800C180302A00F0BE80089D1F463023EC1BA6
:1045E80001F8013C0CE500BF60A2000874A20008B5
:1045F80054A2000850A20008B8F1650F40F3AD803E
:10460800DDE9160100220023CDF81CC003F0B2FC3E
:10461800DDF81CC0002800F026812C9BAA49013334
:104628000CF1010C0122072BCDF8B4C02C9386E8BD
:10463800060000F3ED820836259B119CA34203DB9C
:10464800099DEC077FF5C0AD2C9B189C0133159D87
:10465800A444072BCDF8B4C0356074602C9300F3E4
:104668003E830836119D6C1E002C7FF7ADAD102CD3
:104678002C9B964D40F3978110276246DDF83480D5
:10468800DDF830A004E00836103C102C40F38A8195
:1046980001331032072B2D922C9386E8A000F2DD0F
:1046A800404651462BAA02F0EBFB00287FF432ACBF
:1046B8002D9A2C9B38AEE7E70F9D0B98C0EB050AA7
:1046C800BAF1000F7FF72EADBAF1100F2C9B7F4D7A
:1046D8002BDD129432464FF0100B2E4661460D9C8E
:1046E8000C9D06E0AAF1100ABAF1100F02F10802B7
:1046F80017DD01331031072B2D912C9382E84008E8
:10470800F0DD204629462BAA02F0BAFB00287FF4E8
:1047180001ACAAF1100ABAF1100F2D992C9B38AAF6
:10472800E7DC129C35468C4616460133D444072BE9
:10473800CDF8B4C02C9386E8200400F30F82083625
:10474800F0E4002D08BF0A2C80F03881303448AFDF
:1047580007F8414D089DEC1B52E4119C012C2C9C40
:1047680040F3D28101340CF101030122072C2D936F
:1047780037602C94726000F3D8810836159DDDF8F7
:10478800608001343560189D9844072CCDF8B480BA
:104798002C94756000F3D5810836DDE916010022F6
:1047A800002303F0E7FB119D002840F0B9806B1E41
:1047B800013401379844072C2C94CDF8B480376025
:1047C800736000F3E2800836DDF864C00134199D97
:1047D800C44427AB072CCDF8B4C02C9486E8280035
:1047E8007FF7F1AC0D980C992BAA02F049FB002831
:1047F8007FF490ABDDF8B4C038AEE5E40D980C99C1
:104808002BAA02F03DFB00283FF437ADFFF782BB2F
:104818000D980C992BAA02F033FB00287FF47AAB91
:10482800DDF8B4C038AEBFE40D980C992BAA02F09D
:1048380027FB00287FF46EABDDF8B4C038AE6DE41A
:104848000D980C992BAA02F01BFB00287FF462AB91
:10485800DDF8B4C038AE50E40A9C38AFFFF7D0BBDF
:104868000223FFF7A9BB259B002B40F3DD81119C98
:10487800149DDDF844A0AC42A8BF2C46002CBA44D5
:104888000BDD2C9BA4440133072BCDF8B4C0376053
:1048980074602C9300F31E830836149D24EAE47494
:1048A8002C1B002C40F3D780102C2C9B074D40F379
:1048B800A3810A974FF010082F4662462546DDF877
:1048C80034B00C9C09E000BF90A2000840A2000888
:1048D8000836103D102D40F38B8101331032072B21
:1048E8002D922C9386E88001F2DD584621462BAAAA
:1048F80002F0C6FA00287FF40DAB2D9A2C9B38AE37
:10490800E7E70D980C992BAA02F0BAFA00287FF471
:1049180001AB9DF88FA0DDF8B4C038AEFFF7DABB65
:104928006F1E002F7FF750AF102FAE4D23DD43468B
:104938004FF0100ADDF83480DDF830B004E0103FA5
:10494800102F06F1080615DD01341033072C2D93BE
:104958002C9486E82004F2DD404659462BAA02F042
:104968008FFA00287FF4D6AA103F102F2D9B2C9C7D
:1049780038AEE9DC98460134B844072CCDF8B48049
:104988002C9486E8A0007FF71EAF0D980C992BAAEF
:1049980002F076FA00287FF4BDAADDF8B4802C9CDA
:1049A80038AE11E794460133A444072BCDF8B4C0C0
:1049B8002C93356074607FF706AC13E70DF1DF0BBD
:1049C800204629460A22002303F02EFB30328BF8BA
:1049D8000020204629460A22002303F025FB04462E
:1049E8000D4654EA050C5F460BF1FF3BE8D1089DE4
:1049F800EC1BFFF705BB109D01232C6804351095AF
:104A08000025FFF7D9BA109D2C68043510950025AC
:104A1800FFF7D2BA109D2C6804351095E517224689
:104A28002B46002A73F1000CBFF66CAC4FF02D0A30
:104A3800644265EB45058DF88FA00123FFF7C0BAE6
:104A48000D980C992BAA02F01BFA00287FF462AA91
:104A5800DDF8B4C038AE149D259C2F44119DAC429E
:104A680042DB099DE9073FD41198C7EB0A05041BEF
:104A7800AC42B8BF2546002D0BDD2C9BAC4401335E
:104A8800072BCDF8B4C0376075602C9300F34C82C7
:104A9800083625EAE575641B002C7FF795AB102CCA
:104AA8002C9B504D7FF77FAF10276246DDF834808E
:104AB800DDF830A004E00836103C102C7FF772AF08
:104AC80001331032072B2D922C9386E8A000F2DDDB
:104AD800404651462BAA02F0D3F900287FF41AAABF
:104AE8002D9A2C9B38AEE7E7189D2C9BAC44159D5E
:104AF80001333560189D072BCDF8B4C075602C9331
:104B080000F3F4810836AFE7099DEA073FF52AAEBE
:104B180001340CF101080123072CCDF8B4802C9442
:104B2800376073607FF74FAE2FE70D980C992BAA6B
:104B380002F0A6F900287FF4EDA92D9B2C9C38AE35
:104B48001CE60D980C992BAA02F09AF900287FF41C
:104B5800E1A9DDF8B4802C9C38AE1EE60D980C99BE
:104B68002BAA02F08DF900287FF4D4A9DDF8B4C08F
:104B780038AEFFF7D7BA02F049F9002840F0BB80F9
:104B8800099C194F194B4FF0030C24F08004099429
:104B98000A90CDF82CC01490B8F1470FD8BF1F4623
:104BA80064469DF88FA0FFF734BA099C640640F16B
:104BB8005081DDF840C00025BCF800400CF1040C21
:104BC800CDF840C0FFF7E4B9DDF824C01CF0100FA1
:104BD80000F04681109C0E9D2368043410941D60DB
:104BE800FFF7A6B840A200085CA2000858A2000877
:104BF8002C463D460A9F94460133A444072BCDF822
:104C0800B4C02C93356074603FF71AAF083622E7BA
:104C18000D980C992BAA02F033F900287FF47AA991
:104C2800DDF8B4C038AE07E52C9AB74901320CF16B
:104C3800010C0120072ACDF8B4C02C9231607060B5
:104C480000F3F78008361C462CB9119D1DB9099D43
:104C5800E8077FF5B9AA2C9B159D18990133356093
:104C6800189D6144072B2D9175602C9300F3DE810C
:104C780006F108026442002C40F30B81102CA34D6E
:104C880040F34881A34610260C46DDF83480DDF851
:104C980030A006E00832ABF1100BBBF1100F40F367
:104CA800378101331034072B2D942C9382E8600050
:104CB800F0DD404651462BAA02F0E2F800287FF4C6
:104CC80029A92D9C2C9B38AAE5E7099C09F1010923
:104CD80044F02004099493F80180FFF75FB80D9819
:104CE8000C992BAA02F0CCF800287FF413A9DDF860
:104CF800B4C038AEB6E40A9D28F0200A013500F0A9
:104D0800A580BAF1470F04D10A9D002D08BF0125DF
:104D18000A95DDF824C0DDE916234CF4807C002BCD
:104D2800CDF848C0C0F29C81DDE91645CDE92045A3
:104D38004FF0000BB8F1660F00F09B81B8F1460FF9
:104D480000F0A981BAF1450F0ABF0A9C0A9D651CAB
:104D5800022025A926AA29AB8DE8210003920493F5
:104D680002910D98DDE9202300F0C6FAB8F1670F2B
:104D7800074602D0B8F1470F05D1DDF824C01CF072
:104D8800010F00F09C81BAF1460F07EB050400F013
:104D98001C81DDE920010022002303F0EBF8002844
:104DA80040F00581299B9C4206D930215A1C299242
:104DB8001970299B9C42F9D8DB1BBAF1470F119354
:104DC80000F0ED80B8F1650F40F3F281B8F1660F9D
:104DD80000F06881259C1494119C149DAC4200F34A
:104DE8003281DDF824C01CF0010F40F0AD8125EAC6
:104DF800E5732C464FF06708BBF1000F40F0B28016
:104E0800129D0B930995CDF828B09DF88FA0FFF758
:104E180000B90D98402101F08FF920602061002829
:104E280000F0BF81DDF830C04023CCF81430FEF725
:104E38006FBF0D980C992BAA02F022F800287FF476
:104E480069A8259CDDF8B4C038AEFDE606240A94AE
:104E58005FE7109D2C68043510950025FFF798B87A
:104E6800DDF824C01CF0400F00F08780109C0E9DD8
:104E78002368043410941D80FEF75ABF0D980C99CE
:104E88002BAA01F0FDFF00287FF444A82D992C9B44
:104E980038AADDF844C00133119C8C44072BCDF8A7
:104EA800B4C02C93176054603FF79CAC02F108061D
:104EB800FFF78AB9CDF828A0FEF714FE10950A9DD1
:104EC80020EAE07C0446CDF82CC014959DF88FA00C
:104ED800FFF79FB80D980C992BAA01F0D1FF002875
:104EE8007FF418A8DDF8B4C038AED6E40D980C9954
:104EF8002BAA01F0C5FF00287FF40CA8259CDDF83B
:104F0800B4C038AEB0E500BF90A2000840A20008C7
:104F180021465C4601332144072B2D912C931560C3
:104F28005460ABDC0832B4E70D980C992BAA01F059
:104F3800A7FF00287EF4EEAF259C1199DDF8B4C0D8
:104F48000C1B38AEA5E50A9CBA46062C28BF0624D9
:104F580024EAE47C0A9714971095CDF82CC0974F53
:104F6800FFF757B8129D4FF02D0A099500250B93AE
:104F78008DF88FA00A95FFF74FB8DDF840C00E9C5A
:104F8800DCF800300CF1040CCDF840C01C60FEF7D2
:104F9800CFBE4FF02D0A8DF88FA0FFF799BA259B49
:104FA800DC1C19DB0A9C9C4216DB149314E723468D
:104FB80002E724EAE47CCDF82CC00A9C10950A90FC
:104FC80014909DF88FA0FFF724B83B78302B00F0A1
:104FD800AD80259D2C44DCE6A8F10208591E002965
:104FE8002591BABF49422D232B2309298DF89C808E
:104FF8008DF89D3065DC302330318DF89E308DF88A
:105008009F1028AB119D27AA119C9A1A012D19925D
:10501800144440F3B7800134002524EAE47314955E
:10502800EAE6002481460A94FEF7BABE0D980C9968
:105038002BAA01F025FF00287EF46CAF259C2D9942
:105048002C9B38AA16E6149C119D002CD4BFC4F1E1
:10505800020401242C4424EAE4734FF06708CBE6E9
:105068001799169801F10041209021914FF02D0BCE
:1050780060E60A9D032025A926AA29AB0195009080
:105088000392049302910D98DDE9202300F034F98E
:105098000A9D074677E60A9C032025A926AA29AB7C
:1050A8000194ECE7259D0A9C002D149563DDB4BBA3
:1050B800099DE80733D4149C24EAE4739CE6299BF1
:1050C8007AE60DF1AA023E4DCB1785FB0150C3EBE2
:1050D800A00000EB8003A1EB43010928134601F16E
:1050E80030021A70014603F1FF32ECDC00F13001A6
:1050F8000DF1AB04C9B2944203F8011C5AD90DF161
:105108009D001A4601E012F8011BA24200F8011F97
:10511800F9D10DF5907CC3EB4C03F63B72E70A9D81
:105128006C1C149D2C4424EAE47365E6DDE9200137
:105138000022002302F01EFF00287FF44AAFC5F1C9
:10514800010525952C4424E6149D4FF067086C1C36
:1051580024EAE47350E6109DDDF840C02D680CF198
:105168000403002D99F801800A9510938146BEF634
:1051780015AEFEF710BE7CB9099DE9070CD40123D2
:105188001C4639E6DDF824C01CF001037FF443AF68
:10519800149324EAE4732FE60A9DAC1C24EAE47312
:1051A8002AE60D9D0C232B604FF0FF30FEF7BABEA8
:1051B800259B13E70DF19E0324E700BF88A2000892
:1051C800676666662DE9F04F03690D6983B09D42F5
:1051D800834600F38C80013D01F1140400F1140AA8
:1051E80054F825205AF825300132B3FBF2F8AA000A
:1051F800914600925244A1440192B8F1000F3ED06A
:1052080000263046224653468C4652F8047B1968DD
:105218001FFA87FE3F0C0EFB086E07FB08F606EB2D
:105228001E461FFA8EFECEEB000E8FB2B0B2774448
:10523800C0EB114000EB2740BFB247EA0047914559
:1052480043F8047B4FEA20404FEA1646DDD2009A25
:1052580061465AF8023093B9019A131F9A450CD245
:1052680052F8043C4BB9A2F1080302E01A68043B67
:105278001AB99A4505F1FF35F8D3CBF810505846BE
:1052880001F0D6FC00282EDB08F101085346002265
:1052980054F8046B1868B1B2511A87B2360C394405
:1052A800C6EB104000EB214289B241EA0241A14518
:1052B80043F8041B4FEA2242EAD25AF825200AEBA7
:1052C800850382B91A1F92450BD253F8042C42B9B0
:1052D800083B02E01A68043B1AB99A4505F1FF3504
:1052E800F8D3CBF81050404603B0BDE8F08F00204B
:1052F80003B0BDE8F08F00BF2DE9F04F016C9BB003
:10530800044692469B46279D41B1436C01229A4030
:105318004B608A6001F096FA00232364BBF1000F0A
:10532800D94633DB00232B60A54B1A4609EA030351
:10533800934214D0504659460022002302F01AFE28
:10534800804648B3269E289D01233360002D00F037
:10535800CA809C48286001381BB0BDE8F08F269DA4
:1053680042F20F732B60BAF1000F00F0A580964847
:10537800289E002EF0D0C378002B00F0B68000F1F4
:105388000803289D2B601BB0BDE8F08F01232BF08C
:1053980000492B60CB46C7E719AA18AB8DE80C006B
:1053A800204652465B4601F0D3FC5FEA19550A9045
:1053B80040F08B80189F199D6FF482633D449D4295
:1053C800C0F295821F3305F212425B1B09FA03F300
:1053D8002AFA02F243EA020002F0EEFA0126013D3F
:1053E800B846A1F1F87116960022784B02F0A6F99A
:1053F8006DA3D3E9002302F055FB6DA3D3E9002385
:1054080002F09EF9064628460F4602F0E5FA6AA31E
:10541800D3E9002302F046FB02460B4630463946E4
:1054280002F08EF906460F4602F0D6FD394607907F
:1054380000223046002302F0A7FD002840F0298210
:10544800079E162E00F222826149524601EBC601E0
:105458005B46D1E9000102F0B5FD002800F04C825E
:10546800013E079600260E96C5EB0805013D0695F8
:1054780000F1268200250895079E002EC0F21782AB
:10548800069D0D963544002606950C96249D092DFB
:105498002DD8052DC4BF043D2495249EC8BF0025E2
:1054A800A6F10203D8BF0125032B22D8DFE813F0A9
:1054B800B7039E02C0039A04464A434BC9F313003C
:1054C80000280CBF1046184652E7CBF3130343F0ED
:1054D8007F51CDF858805046A5F2FF3541F4401170
:1054E800DDF8608080E73C4836E7C31C49E70025C3
:1054F8002495002565642946204601F07DF94FF082
:10550800FF390126099025952064CDF83C900B962B
:10551800199B002BC0F2D280079E0E2E00F3CE807E
:105528002B4B03EBC603D3E90001CDE90401259910
:105538000029C0F28083DDE904235946504602F071
:10554800DBFB02F049FD054602F046FADDE90423DB
:1055580002F0A8FA02460B465046594602F0EEF809
:10556800099A05F13003B9F1010F06460F46137089
:1055780002F1010B64D00022184B02F093FA0022CA
:10558800002306460F4602F0F5FC002840F0818013
:10559800DDF82480099DC844DDE904AB05F1020962
:1055A800039428E0AFF3008061436F63A787D23F7D
:1055B800B3C8608B288AC63FFB799F501344D33FFA
:1055C8000000F07F91A20008B0A200080000F83F98
:1055D800C0A20008A4A2000890A20008000024406D
:1055E80002F060FA0022002306460F4602F0C2FCD1
:1055F800002840F0C18352465B463046394602F0E7
:105608007BFB02F0E9FC054602F0E6F952465B46F0
:1056180002F048FA02460B463046394602F08EF848
:1056280005F1300EC14509F801EC4C4606460F4617
:105638004FF00002A74B09F10109D1D1A346039C01
:1056480032463B463046394602F07AF806460F465F
:105658003246DDE904013B4602F096FC40B9DDE93B
:10566800040132463B4602F085FC90B1EB0710D5A9
:105678001BF8015C099A05E09A4200F0298413F8A6
:10568800015C9B46392D0BF1FF33F5D06A1CD2B271
:105698001A7020460A9901F0D5F8079E269D731CBA
:1056A800289E00228BF800202B60002E00F0258316
:1056B8000998C6F800B01BB0BDE8F08F0B9D002D0F
:1056C80000F00381249E012E40F3DC820C9E09F138
:1056D800FF37BE42C0F28983F71BB9F1000FC0F251
:1056E8008784089D4B46089E20461E440896069EC1
:1056F80001211E44069601F047F9064665B1069851
:10570800002809DD03460899AB42A8BF2B46C91AF1
:10571800C01A0891ED1A06900C9A002A1DDD0B9B01
:10572800002B00F05883002F11DD31463A46204601
:1057380001F0D2F9064631460A9A204601F02EF9C0
:105748000A998046204601F07DF8CDF82880DDF8DA
:1057580030E0BEEB070240F08F822046012101F0C5
:1057680013F980460D98002805DD414620460D9A1C
:1057780001F0B2F980462499012940F3C18200273B
:105788000D98002840F0AF820120069B034413F0D7
:105798001F0300F0A180C3F12002042A40F3B7845C
:1057A8000899069AC3F11C0319441A4408911D4428
:1057B80006920899002905DD0A99089A204601F001
:1057C800D9F90A90069A002A04DD4146204601F0DC
:1057D800D1F980460E9B002B40F06A82B9F1000F88
:1057E80040F3A6820B98002840F088800B9D0A9F02
:1057F800DDF824B006E0394620460A22002301F0ED
:105808002BF8074638464146FFF7DCFC30300BF8EA
:1058180005000135A945EEDCDDF824B082460A977B
:10582800B9F1010FACBFCB440BF1010B00250A996C
:105838000122204601F09EF941460A9001F0F8F94C
:10584800002840F309831BF8012C099905E09942C7
:1058580000F08B8213F8012C9B46392A0BF1FF3399
:10586800F5D001321A704146204600F0EBFF002EB9
:105878003FF40FAF2DB1B54203D02946204600F0C2
:10588800E1FF3146204600F0DDFF02E701260E96D3
:10589800EAE5079802F0A0F832463B4602F06AFBB8
:1058A80000287FF4CDAD079E013E0796C8E5079E08
:1058B800089DAD1B0895754200260C950D96E5E5EB
:1058C8006D42002608950696D6E50C9F089D0B9E0E
:1058D80014E700BF000024401C23DDF820E00698F0
:1058E8009E441844CDF820E01D44069061E7A7487F
:1058F800401B0AFA00F06FE50E90B5E5002D05DDB6
:1059080031462A46204601F035F90646002F40F078
:10591800E9823746099D09984D4408950AF0010522
:105928000B95DDF82890451C0AE000F095FF3946F4
:1059380006460A222046002300F08EFF074601355E
:1059480041464846FFF73EFC31468346484601F04B
:105958006FF9414603903A46204601F08DF9C26836
:10596800691E03460BF1300A0691002A40F0938124
:1059780019464846029301F05BF9029B0246194614
:105988002046029200F05EFF029A2AB9249B1BB9B6
:105998000B98002800F09383039B002BC0F23482FD
:1059A80005D1249818B90B99002900F02D82002AF6
:1059B80000F3AC82DDF820E005F801AC7545AB4694
:1059C80000F0B48249460A220023204600F044FF32
:1059D800BE428146314620464FF00A024FF000038E
:1059E800A3D100F039FF06460746A8E700260B9624
:1059F800079EDDF894E0B6440EF10109B9F1000FF5
:105A0800CDF83CE04E4640F350810021172E6164EA
:105A18000AD9012204235B0003F11400B0421146A5
:105A280002F10102F7D96164204600F0E5FE0E2E6E
:105A3800099020643FF66CAD002D3FF469AD079DD9
:105A4800CDE912AB002D40F31C82514B05F00F023B
:105A580003EBC2032D11D3E90067EB0640F1CD81BA
:105A68004C4B50465946D3E9082302F045F9CDE995
:105A7800100105F00F054FF003088DB1DFF814A1F0
:105A880030463946EE0705D5DAE9002308F1010862
:105A980002F008F86D100AF1080AF3D106460F461D
:105AA800DDE9100132463B4602F026F982468B4674
:105AB8000E9D45B1504659460022374B02F064FA14
:105AC800002840F0AA82404601F086FF52465B4615
